{
  "contractName": "CertificationRegistry",
  "abi": [
    {
      "constant": true,
      "inputs": [
        {
          "name": "",
          "type": "address"
        }
      ],
      "name": "CertAdmins",
      "outputs": [
        {
          "name": "",
          "type": "bool"
        }
      ],
      "payable": false,
      "stateMutability": "view",
      "type": "function"
    },
    {
      "constant": true,
      "inputs": [],
      "name": "GlobalAdmin",
      "outputs": [
        {
          "name": "",
          "type": "address"
        }
      ],
      "payable": false,
      "stateMutability": "view",
      "type": "function"
    },
    {
      "constant": true,
      "inputs": [
        {
          "name": "",
          "type": "bytes32"
        }
      ],
      "name": "CertificateAddresses",
      "outputs": [
        {
          "name": "Address",
          "type": "address"
        },
        {
          "name": "IsOrganization",
          "type": "bool"
        }
      ],
      "payable": false,
      "stateMutability": "view",
      "type": "function"
    },
    {
      "inputs": [],
      "payable": false,
      "stateMutability": "nonpayable",
      "type": "constructor"
    },
    {
      "anonymous": false,
      "inputs": [
        {
          "indexed": false,
          "name": "_certID",
          "type": "string"
        },
        {
          "indexed": false,
          "name": "_certAdrress",
          "type": "address"
        }
      ],
      "name": "CertificationSet",
      "type": "event"
    },
    {
      "anonymous": false,
      "inputs": [
        {
          "indexed": false,
          "name": "_certID",
          "type": "string"
        },
        {
          "indexed": false,
          "name": "_certAdrress",
          "type": "address"
        }
      ],
      "name": "IndividualCertificationSet",
      "type": "event"
    },
    {
      "anonymous": false,
      "inputs": [
        {
          "indexed": false,
          "name": "_certID",
          "type": "string"
        },
        {
          "indexed": false,
          "name": "_certAdrress",
          "type": "address"
        }
      ],
      "name": "CertificationDeleted",
      "type": "event"
    },
    {
      "anonymous": false,
      "inputs": [
        {
          "indexed": false,
          "name": "_certAdmin",
          "type": "address"
        }
      ],
      "name": "CertAdminAdded",
      "type": "event"
    },
    {
      "anonymous": false,
      "inputs": [
        {
          "indexed": false,
          "name": "_certAdmin",
          "type": "address"
        }
      ],
      "name": "CertAdminDeleted",
      "type": "event"
    },
    {
      "anonymous": false,
      "inputs": [
        {
          "indexed": false,
          "name": "_globalAdmin",
          "type": "address"
        }
      ],
      "name": "GlobalAdminChanged",
      "type": "event"
    },
    {
      "constant": false,
      "inputs": [
        {
          "name": "_CompanyName",
          "type": "string"
        },
        {
          "name": "_Norm",
          "type": "string"
        },
        {
          "name": "_CertID",
          "type": "string"
        },
        {
          "name": "_issued",
          "type": "uint256"
        },
        {
          "name": "_expires",
          "type": "uint256"
        },
        {
          "name": "_Scope",
          "type": "string"
        },
        {
          "name": "_issuingBody",
          "type": "string"
        }
      ],
      "name": "setCertificate",
      "outputs": [],
      "payable": false,
      "stateMutability": "nonpayable",
      "type": "function"
    },
    {
      "constant": false,
      "inputs": [
        {
          "name": "_CertID",
          "type": "string"
        },
        {
          "name": "_hashValue",
          "type": "string"
        }
      ],
      "name": "setIndividualCertificate",
      "outputs": [],
      "payable": false,
      "stateMutability": "nonpayable",
      "type": "function"
    },
    {
      "constant": false,
      "inputs": [
        {
          "name": "_CertID",
          "type": "string"
        }
      ],
      "name": "delOrganizationCertificate",
      "outputs": [],
      "payable": false,
      "stateMutability": "nonpayable",
      "type": "function"
    },
    {
      "constant": false,
      "inputs": [
        {
          "name": "_CertID",
          "type": "string"
        }
      ],
      "name": "delIndividualCertificate",
      "outputs": [],
      "payable": false,
      "stateMutability": "nonpayable",
      "type": "function"
    },
    {
      "constant": false,
      "inputs": [
        {
          "name": "_CertAdmin",
          "type": "address"
        }
      ],
      "name": "addCertAdmin",
      "outputs": [],
      "payable": false,
      "stateMutability": "nonpayable",
      "type": "function"
    },
    {
      "constant": false,
      "inputs": [
        {
          "name": "_CertAdmin",
          "type": "address"
        }
      ],
      "name": "delCertAdmin",
      "outputs": [],
      "payable": false,
      "stateMutability": "nonpayable",
      "type": "function"
    },
    {
      "constant": false,
      "inputs": [
        {
          "name": "_GlobalAdmin",
          "type": "address"
        }
      ],
      "name": "changeGlobalAdmin",
      "outputs": [],
      "payable": false,
      "stateMutability": "nonpayable",
      "type": "function"
    },
    {
      "constant": true,
      "inputs": [
        {
          "name": "_CertID",
          "type": "string"
        }
      ],
      "name": "getCertAddressByID",
      "outputs": [
        {
          "name": "",
          "type": "address"
        }
      ],
      "payable": false,
      "stateMutability": "view",
      "type": "function"
    },
    {
      "constant": true,
      "inputs": [
        {
          "name": "_CertID",
          "type": "string"
        }
      ],
      "name": "getCertKey",
      "outputs": [
        {
          "name": "",
          "type": "bytes32"
        }
      ],
      "payable": false,
      "stateMutability": "pure",
      "type": "function"
    }
  ],
  "bytecode": "0x608060405234801561001057600080fd5b5033600260006101000a81548173ffffffffffffffffffffffffffffffffffffffff021916908373ffffffffffffffffffffffffffffffffffffffff16021790555061288d806100616000396000f3006080604052600436106100ba576000357c0100000000000000000000000000000000000000000000000000000000900463ffffffff1680630226ed48146100bf5780630ba92878146101025780631536cabf1461016b5780631c1bd6cf146101ae57806325a3ba4914610217578063520e12d71461029c5780636ce382b2146103455780636f3f6870146103f45780639e4a613f1461044f578063a614d54e146105e4578063cf904e7d1461063b578063cfe6f2201461067e575b600080fd5b3480156100cb57600080fd5b50610100600480360381019080803573ffffffffffffffffffffffffffffffffffffffff1690602001909291905050506106fa565b005b34801561010e57600080fd5b50610169600480360381019080803590602001908201803590602001908080601f01602080910402602001604051908101604052809392919081815260200183838082843782019150505050505091929192905050506107fd565b005b34801561017757600080fd5b506101ac600480360381019080803573ffffffffffffffffffffffffffffffffffffffff169060200190929190505050610a84565b005b3480156101ba57600080fd5b50610215600480360381019080803590602001908201803590602001908080601f0160208091040260200160405190810160405280939291908181526020018383808284378201915050505050509192919290505050610b9d565b005b34801561022357600080fd5b5061027e600480360381019080803590602001908201803590602001908080601f0160208091040260200160405190810160405280939291908181526020018383808284378201915050505050509192919290505050610e24565b60405180826000191660001916815260200191505060405180910390f35b3480156102a857600080fd5b50610303600480360381019080803590602001908201803590602001908080601f0160208091040260200160405190810160405280939291908181526020018383808284378201915050505050509192919290505050610f3b565b604051808273ffffffffffffffffffffffffffffffffffffffff1673ffffffffffffffffffffffffffffffffffffffff16815260200191505060405180910390f35b34801561035157600080fd5b506103f2600480360381019080803590602001908201803590602001908080601f0160208091040260200160405190810160405280939291908181526020018383808284378201915050505050509192919290803590602001908201803590602001908080601f0160208091040260200160405190810160405280939291908181526020018383808284378201915050505050509192919290505050610f8a565b005b34801561040057600080fd5b50610435600480360381019080803573ffffffffffffffffffffffffffffffffffffffff1690602001909291905050506111b9565b604051808215151515815260200191505060405180910390f35b34801561045b57600080fd5b506105e2600480360381019080803590602001908201803590602001908080601f0160208091040260200160405190810160405280939291908181526020018383808284378201915050505050509192919290803590602001908201803590602001908080601f0160208091040260200160405190810160405280939291908181526020018383808284378201915050505050509192919290803590602001908201803590602001908080601f01602080910402602001604051908101604052809392919081815260200183838082843782019150505050505091929192908035906020019092919080359060200190929190803590602001908201803590602001908080601f0160208091040260200160405190810160405280939291908181526020018383808284378201915050505050509192919290803590602001908201803590602001908080601f01602080910402602001604051908101604052809392919081815260200183838082843782019150505050505091929192905050506111d9565b005b3480156105f057600080fd5b506105f9611627565b604051808273ffffffffffffffffffffffffffffffffffffffff1673ffffffffffffffffffffffffffffffffffffffff16815260200191505060405180910390f35b34801561064757600080fd5b5061067c600480360381019080803573ffffffffffffffffffffffffffffffffffffffff16906020019092919050505061164d565b005b34801561068a57600080fd5b506106ad600480360381019080803560001916906020019092919050505061175e565b604051808373ffffffffffffffffffffffffffffffffffffffff1673ffffffffffffffffffffffffffffffffffffffff168152602001821515151581526020019250505060405180910390f35b600260009054906101000a900473ffffffffffffffffffffffffffffffffffffffff1673ffffffffffffffffffffffffffffffffffffffff163373ffffffffffffffffffffffffffffffffffffffff1614151561075657600080fd5b80600260006101000a81548173ffffffffffffffffffffffffffffffffffffffff021916908373ffffffffffffffffffffffffffffffffffffffff1602179055507f01998ad4b0cc08b3e190adcb94d72b69479b3f817ea6a2b1fd960ce176610fd981604051808273ffffffffffffffffffffffffffffffffffffffff1673ffffffffffffffffffffffffffffffffffffffff16815260200191505060405180910390a150565b6000600160003373ffffffffffffffffffffffffffffffffffffffff1673ffffffffffffffffffffffffffffffffffffffff16815260200190815260200160002060009054906101000a900460ff16151561085757600080fd5b61086082610e24565b9050600080826000191660001916815260200190815260200160002060000160009054906101000a900473ffffffffffffffffffffffffffffffffffffffff1673ffffffffffffffffffffffffffffffffffffffff1663afa936b86040518163ffffffff167c0100000000000000000000000000000000000000000000000000000000028152600401600060405180830381600087803b15801561090357600080fd5b505af1158015610917573d6000803e3d6000fd5b505050507fd3595dec7c51a76054a222cd6805bb86e35b5f4b1963b9f7eb73beade34426c582600080846000191660001916815260200190815260200160002060000160009054906101000a900473ffffffffffffffffffffffffffffffffffffffff1660405180806020018373ffffffffffffffffffffffffffffffffffffffff1673ffffffffffffffffffffffffffffffffffffffff168152602001828103825284818151815260200191508051906020019080838360005b838110156109ed5780820151818401526020810190506109d2565b50505050905090810190601f168015610a1a5780820380516001836020036101000a031916815260200191505b50935050505060405180910390a16000808260001916600019168152602001908152602001600020600080820160006101000a81549073ffffffffffffffffffffffffffffffffffffffff02191690556000820160146101000a81549060ff021916905550505050565b600260009054906101000a900473ffffffffffffffffffffffffffffffffffffffff1673ffffffffffffffffffffffffffffffffffffffff163373ffffffffffffffffffffffffffffffffffffffff16141515610ae057600080fd5b60018060008373ffffffffffffffffffffffffffffffffffffffff1673ffffffffffffffffffffffffffffffffffffffff16815260200190815260200160002060006101000a81548160ff0219169083151502179055507fa4a1a78d5a7a475cc16cdf30cd440485cce5817d6c693dfd725dee060070f89a81604051808273ffffffffffffffffffffffffffffffffffffffff1673ffffffffffffffffffffffffffffffffffffffff16815260200191505060405180910390a150565b6000600160003373ffffffffffffffffffffffffffffffffffffffff1673ffffffffffffffffffffffffffffffffffffffff16815260200190815260200160002060009054906101000a900460ff161515610bf757600080fd5b610c0082610e24565b9050600080826000191660001916815260200190815260200160002060000160009054906101000a900473ffffffffffffffffffffffffffffffffffffffff1673ffffffffffffffffffffffffffffffffffffffff1663afa936b86040518163ffffffff167c0100000000000000000000000000000000000000000000000000000000028152600401600060405180830381600087803b158015610ca357600080fd5b505af1158015610cb7573d6000803e3d6000fd5b505050507fd3595dec7c51a76054a222cd6805bb86e35b5f4b1963b9f7eb73beade34426c582600080846000191660001916815260200190815260200160002060000160009054906101000a900473ffffffffffffffffffffffffffffffffffffffff1660405180806020018373ffffffffffffffffffffffffffffffffffffffff1673ffffffffffffffffffffffffffffffffffffffff168152602001828103825284818151815260200191508051906020019080838360005b83811015610d8d578082015181840152602081019050610d72565b50505050905090810190601f168015610dba5780820380516001836020036101000a031916815260200191505b50935050505060405180910390a16000808260001916600019168152602001908152602001600020600080820160006101000a81549073ffffffffffffffffffffffffffffffffffffffff02191690556000820160146101000a81549060ff021916905550505050565b60006002826040516020018082805190602001908083835b602083101515610e615780518252602082019150602081019050602083039250610e3c565b6001836020036101000a0380198251168184511680821785525050505050509050019150506040516020818303038152906040526040518082805190602001908083835b602083101515610eca5780518252602082019150602081019050602083039250610ea5565b6001836020036101000a0380198251168184511680821785525050505050509050019150506020604051808303816000865af1158015610f0e573d6000803e3d6000fd5b5050506040513d6020811015610f2357600080fd5b81019080805190602001909291905050509050919050565b6000806000610f4984610e24565b6000191660001916815260200190815260200160002060000160009054906101000a900473ffffffffffffffffffffffffffffffffffffffff169050919050565b600080600160003373ffffffffffffffffffffffffffffffffffffffff1673ffffffffffffffffffffffffffffffffffffffff16815260200190815260200160002060009054906101000a900460ff161515610fe557600080fd5b610fee84610e24565b915082610ff96117af565b8080602001828103825283818151815260200191508051906020019080838360005b8381101561103657808201518184015260208101905061101b565b50505050905090810190601f1680156110635780820380516001836020036101000a031916815260200191505b5092505050604051809103906000f080158015611084573d6000803e3d6000fd5b50905080600080846000191660001916815260200190815260200160002060000160006101000a81548173ffffffffffffffffffffffffffffffffffffffff021916908373ffffffffffffffffffffffffffffffffffffffff1602179055507f445a1483f7d06e6fa0a450661ca0f9bdc3c841d6775d604e0ea8e5198e3b6e92848260405180806020018373ffffffffffffffffffffffffffffffffffffffff1673ffffffffffffffffffffffffffffffffffffffff168152602001828103825284818151815260200191508051906020019080838360005b8381101561117857808201518184015260208101905061115d565b50505050905090810190601f1680156111a55780820380516001836020036101000a031916815260200191505b50935050505060405180910390a150505050565b60016020528060005260406000206000915054906101000a900460ff1681565b600080600160003373ffffffffffffffffffffffffffffffffffffffff1673ffffffffffffffffffffffffffffffffffffffff16815260200190815260200160002060009054906101000a900460ff16151561123457600080fd5b61123d87610e24565b91508888888888888861124e6117c0565b80806020018060200180602001888152602001878152602001806020018060200186810386528d818151815260200191508051906020019080838360005b838110156112a757808201518184015260208101905061128c565b50505050905090810190601f1680156112d45780820380516001836020036101000a031916815260200191505b5086810385528c818151815260200191508051906020019080838360005b8381101561130d5780820151818401526020810190506112f2565b50505050905090810190601f16801561133a5780820380516001836020036101000a031916815260200191505b5086810384528b818151815260200191508051906020019080838360005b83811015611373578082015181840152602081019050611358565b50505050905090810190601f1680156113a05780820380516001836020036101000a031916815260200191505b50868103835288818151815260200191508051906020019080838360005b838110156113d95780820151818401526020810190506113be565b50505050905090810190601f1680156114065780820380516001836020036101000a031916815260200191505b50868103825287818151815260200191508051906020019080838360005b8381101561143f578082015181840152602081019050611424565b50505050905090810190601f16801561146c5780820380516001836020036101000a031916815260200191505b509c50505050505050505050505050604051809103906000f080158015611497573d6000803e3d6000fd5b50905060408051908101604052808273ffffffffffffffffffffffffffffffffffffffff16815260200160011515815250600080846000191660001916815260200190815260200160002060008201518160000160006101000a81548173ffffffffffffffffffffffffffffffffffffffff021916908373ffffffffffffffffffffffffffffffffffffffff16021790555060208201518160000160146101000a81548160ff0219169083151502179055509050507f8fbf148d28be481e097c657015bb6b0208186e51c02513de60d0efa2255ea2a7878260405180806020018373ffffffffffffffffffffffffffffffffffffffff1673ffffffffffffffffffffffffffffffffffffffff168152602001828103825284818151815260200191508051906020019080838360005b838110156115e15780820151818401526020810190506115c6565b50505050905090810190601f16801561160e5780820380516001836020036101000a031916815260200191505b50935050505060405180910390a1505050505050505050565b600260009054906101000a900473ffffffffffffffffffffffffffffffffffffffff1681565b600260009054906101000a900473ffffffffffffffffffffffffffffffffffffffff1673ffffffffffffffffffffffffffffffffffffffff163373ffffffffffffffffffffffffffffffffffffffff161415156116a957600080fd5b600160008273ffffffffffffffffffffffffffffffffffffffff1673ffffffffffffffffffffffffffffffffffffffff16815260200190815260200160002060006101000a81549060ff02191690557fd5c7aece2cb58986279bb01fed2a4436ffe2a84c3c057995bf317f9030a7dac381604051808273ffffffffffffffffffffffffffffffffffffffff1673ffffffffffffffffffffffffffffffffffffffff16815260200191505060405180910390a150565b60006020528060005260406000206000915090508060000160009054906101000a900473ffffffffffffffffffffffffffffffffffffffff16908060000160149054906101000a900460ff16905082565b60405161067980620017d283390190565b604051610a178062001e4b833901905600608060405234801561001057600080fd5b50604051610679380380610679833981018060405281019080805182019291905050508060608190506080815114151561004957600080fd5b336000806101000a81548173ffffffffffffffffffffffffffffffffffffffff021916908373ffffffffffffffffffffffffffffffffffffffff160217905550826001908051906020019061009f9291906100a8565b5050505061014d565b828054600181600116156101000203166002900490600052602060002090601f016020900481019282601f106100e957805160ff1916838001178555610117565b82800160010185558215610117579182015b828111156101165782518255916020019190600101906100fb565b5b5090506101249190610128565b5090565b61014a91905b8082111561014657600081600090555060010161012e565b5090565b90565b61051d8061015c6000396000f300608060405260043610610062576000357c0100000000000000000000000000000000000000000000000000000000900463ffffffff1680632b92b8e51461006757806349cf2eae146100f757806361cbe2151461014e578063afa936b8146101b7575b600080fd5b34801561007357600080fd5b5061007c6101ce565b6040518080602001828103825283818151815260200191508051906020019080838360005b838110156100bc5780820151818401526020810190506100a1565b50505050905090810190601f1680156100e95780820380516001836020036101000a031916815260200191505b509250505060405180910390f35b34801561010357600080fd5b5061010c61026c565b604051808273ffffffffffffffffffffffffffffffffffffffff1673ffffffffffffffffffffffffffffffffffffffff16815260200191505060405180910390f35b34801561015a57600080fd5b506101b5600480360381019080803590602001908201803590602001908080601f0160208091040260200160405190810160405280939291908181526020018383808284378201915050505050509192919290505050610291565b005b3480156101c357600080fd5b506101cc6103d8565b005b60018054600181600116156101000203166002900480601f0160208091040260200160405190810160405280929190818152602001828054600181600116156101000203166002900480156102645780601f1061023957610100808354040283529160200191610264565b820191906000526020600020905b81548152906001019060200180831161024757829003601f168201915b505050505081565b6000809054906101000a900473ffffffffffffffffffffffffffffffffffffffff1681565b806060819050608081511415156102a757600080fd5b6000809054906101000a900473ffffffffffffffffffffffffffffffffffffffff1673ffffffffffffffffffffffffffffffffffffffff163373ffffffffffffffffffffffffffffffffffffffff1614151561030257600080fd5b7f767a54fbccad24d3e60df26c9381cb44ebf6b2c9bc061a18b5ddfccafcd961a9600160405180806020018281038252838181546001816001161561010002031660029004815260200191508054600181600116156101000203166002900480156103ae5780601f10610383576101008083540402835291602001916103ae565b820191906000526020600020905b81548152906001019060200180831161039157829003601f168201915b50509250505060405180910390a182600190805190602001906103d292919061044c565b50505050565b6000809054906101000a900473ffffffffffffffffffffffffffffffffffffffff1673ffffffffffffffffffffffffffffffffffffffff163373ffffffffffffffffffffffffffffffffffffffff1614151561043357600080fd5b3273ffffffffffffffffffffffffffffffffffffffff16ff5b828054600181600116156101000203166002900490600052602060002090601f016020900481019282601f1061048d57805160ff19168380011785556104bb565b828001600101855582156104bb579182015b828111156104ba57825182559160200191906001019061049f565b5b5090506104c891906104cc565b5090565b6104ee91905b808211156104ea5760008160009055506001016104d2565b5090565b905600a165627a7a723058204d8aef7d242a58b8ec5642466ce9b1a28e4217203865a5893187905159336acc0029608060405234801561001057600080fd5b50604051610a17380380610a1783398101806040528101908080518201929190602001805182019291906020018051820192919060200180519060200190929190805190602001909291908051820192919060200180518201929190505050828410151561007d57600080fd5b336000806101000a81548173ffffffffffffffffffffffffffffffffffffffff021916908373ffffffffffffffffffffffffffffffffffffffff16021790555086600190805190602001906100d392919061014a565b5085600290805190602001906100ea92919061014a565b50846003908051906020019061010192919061014a565b508360048190555082600581905550816006908051906020019061012692919061014a565b50806007908051906020019061013d92919061014a565b50505050505050506101ef565b828054600181600116156101000203166002900490600052602060002090601f016020900481019282601f1061018b57805160ff19168380011785556101b9565b828001600101855582156101b9579182015b828111156101b857825182559160200191906001019061019d565b5b5090506101c691906101ca565b5090565b6101ec91905b808211156101e85760008160009055506001016101d0565b5090565b90565b610819806101fe6000396000f300608060405260043610610099576000357c0100000000000000000000000000000000000000000000000000000000900463ffffffff168063218fd1c41461009e57806331e8c7ba1461012e5780633eb1eb1a146101be57806349cf2eae1461024e5780635f1ff549146102a5578063a2240eb0146102d0578063afa936b814610360578063b1cb0db314610377578063f82ec3e6146103a2575b600080fd5b3480156100aa57600080fd5b506100b3610432565b6040518080602001828103825283818151815260200191508051906020019080838360005b838110156100f35780820151818401526020810190506100d8565b50505050905090810190601f1680156101205780820380516001836020036101000a031916815260200191505b509250505060405180910390f35b34801561013a57600080fd5b506101436104d0565b6040518080602001828103825283818151815260200191508051906020019080838360005b83811015610183578082015181840152602081019050610168565b50505050905090810190601f1680156101b05780820380516001836020036101000a031916815260200191505b509250505060405180910390f35b3480156101ca57600080fd5b506101d361056e565b6040518080602001828103825283818151815260200191508051906020019080838360005b838110156102135780820151818401526020810190506101f8565b50505050905090810190601f1680156102405780820380516001836020036101000a031916815260200191505b509250505060405180910390f35b34801561025a57600080fd5b5061026361060c565b604051808273ffffffffffffffffffffffffffffffffffffffff1673ffffffffffffffffffffffffffffffffffffffff16815260200191505060405180910390f35b3480156102b157600080fd5b506102ba610631565b6040518082815260200191505060405180910390f35b3480156102dc57600080fd5b506102e5610637565b6040518080602001828103825283818151815260200191508051906020019080838360005b8381101561032557808201518184015260208101905061030a565b50505050905090810190601f1680156103525780820380516001836020036101000a031916815260200191505b509250505060405180910390f35b34801561036c57600080fd5b506103756106d5565b005b34801561038357600080fd5b5061038c610749565b6040518082815260200191505060405180910390f35b3480156103ae57600080fd5b506103b761074f565b6040518080602001828103825283818151815260200191508051906020019080838360005b838110156103f75780820151818401526020810190506103dc565b50505050905090810190601f1680156104245780820380516001836020036101000a031916815260200191505b509250505060405180910390f35b60018054600181600116156101000203166002900480601f0160208091040260200160405190810160405280929190818152602001828054600181600116156101000203166002900480156104c85780601f1061049d576101008083540402835291602001916104c8565b820191906000526020600020905b8154815290600101906020018083116104ab57829003601f168201915b505050505081565b60038054600181600116156101000203166002900480601f0160208091040260200160405190810160405280929190818152602001828054600181600116156101000203166002900480156105665780601f1061053b57610100808354040283529160200191610566565b820191906000526020600020905b81548152906001019060200180831161054957829003601f168201915b505050505081565b60078054600181600116156101000203166002900480601f0160208091040260200160405190810160405280929190818152602001828054600181600116156101000203166002900480156106045780601f106105d957610100808354040283529160200191610604565b820191906000526020600020905b8154815290600101906020018083116105e757829003601f168201915b505050505081565b6000809054906101000a900473ffffffffffffffffffffffffffffffffffffffff1681565b60045481565b60068054600181600116156101000203166002900480601f0160208091040260200160405190810160405280929190818152602001828054600181600116156101000203166002900480156106cd5780601f106106a2576101008083540402835291602001916106cd565b820191906000526020600020905b8154815290600101906020018083116106b057829003601f168201915b505050505081565b6000809054906101000a900473ffffffffffffffffffffffffffffffffffffffff1673ffffffffffffffffffffffffffffffffffffffff163373ffffffffffffffffffffffffffffffffffffffff1614151561073057600080fd5b3273ffffffffffffffffffffffffffffffffffffffff16ff5b60055481565b60028054600181600116156101000203166002900480601f0160208091040260200160405190810160405280929190818152602001828054600181600116156101000203166002900480156107e55780601f106107ba576101008083540402835291602001916107e5565b820191906000526020600020905b8154815290600101906020018083116107c857829003601f168201915b5050505050815600a165627a7a72305820117ecb030ae94b95966e4a608eefb13e777458796cd1705c84c151e5a0b5ec430029a165627a7a72305820c3af485b699e28be2b6b8115a6efdc9ec29011da59982983a1ebbb370506e4060029",
  "source": "pragma solidity ^0.4.24;\r\n\r\nimport \"./IndividualCertification.sol\";\r\nimport \"./OrganizationalCertification.sol\";\r\n\r\n/**\r\n  * @title   Certification Contract\r\n  * @author  Chainstep GmbH\r\n  * @author  Rosen GmbH\r\n  * This contract represents the singleton certificate registry.\r\n  */\r\ncontract CertificationRegistry {\r\n    struct Certificate {\r\n      address Address;\r\n      bool IsOrganization;\r\n    }\r\n    /** @dev Dictionary of all Certificate Contracts issued by the Certifier.\r\n             Stores the Certification key derived from the sha(CertID) and stores the\r\n             address where the coresponding Certificate is stored. */\r\n    mapping (bytes32 => Certificate) public CertificateAddresses;\r\n\r\n    /** @dev Dictionary that stores which addresses are owned by Certification administrators */\r\n    mapping (address => bool) public CertAdmins;\r\n\r\n    /** @dev stores the address of the Global Administrator*/\r\n    address public GlobalAdmin;\r\n\r\n    event CertificationSet(string _certID, address _certAdrress);\r\n    event IndividualCertificationSet(string _certID, address _certAdrress);\r\n    event CertificationDeleted(string _certID, address _certAdrress);\r\n    event CertAdminAdded(address _certAdmin);\r\n    event CertAdminDeleted(address _certAdmin);\r\n    event GlobalAdminChanged(address _globalAdmin);\r\n\r\n\r\n\r\n    /**\r\n      * Constructor.\r\n      *\r\n      * The creator of this contract becomes the global administrator.\r\n      */\r\n    constructor() public {\r\n        GlobalAdmin = msg.sender;\r\n    }\r\n\r\n    // Functions\r\n\r\n    /**\r\n      * Create a new certificate contract.\r\n      * This can be done by an certificate administrator only.\r\n      *\r\n      * @param _CompanyName Name of company name the certificate is issued to.\r\n      * @param _Norm The norm.\r\n      * @param _CertID Unique identifier of the certificate.\r\n      * @param _issued Timestamp (Unix epoch) when the certificate was issued.\r\n      * @param _expires Timestamp (Unix epoch) when the certificate will expire.\r\n      * @param _Scope The scope of the certificate.\r\n      * @param _issuingBody The issuer of the certificate.\r\n      */\r\n    function setCertificate(\r\n      string _CompanyName,\r\n      string _Norm,\r\n      string _CertID,\r\n      uint _issued,\r\n      uint _expires,\r\n      string _Scope,\r\n      string _issuingBody)\r\n      public\r\n      onlyCertAdmin\r\n    {\r\n        bytes32 certKey = getCertKey(_CertID);\r\n\r\n        OrganizationalCertification orgCert = new OrganizationalCertification(\r\n                                              _CompanyName,\r\n                                              _Norm,\r\n                                              _CertID,\r\n                                              _issued,\r\n                                              _expires,\r\n                                              _Scope,\r\n                                              _issuingBody);\r\n        CertificateAddresses[certKey] = Certificate({\r\n            Address: address(orgCert),\r\n            IsOrganization: true\r\n        });\r\n\r\n        emit CertificationSet(_CertID, address(orgCert));\r\n    }\r\n\r\n    function setIndividualCertificate(string _CertID, string _hashValue)\r\n      public\r\n      onlyCertAdmin\r\n    {\r\n      bytes32 certKey = getCertKey(_CertID);\r\n      IndividualCertification individualCert = new IndividualCertification(_hashValue);\r\n      CertificateAddresses[certKey].Address = address(individualCert);\r\n      emit IndividualCertificationSet(_CertID, address(individualCert));\r\n    }\r\n\r\n    /**\r\n      * Delete an exisiting certificate.\r\n      *\r\n      * This can be done by an certificate administrator only.\r\n      *\r\n      * @param _CertID Unique identifier of the certificate to delete.\r\n      */\r\n    function delOrganizationCertificate(string _CertID) public onlyCertAdmin {\r\n        bytes32 certKey = getCertKey(_CertID);\r\n\r\n        OrganizationalCertification(CertificateAddresses[certKey].Address).deleteCertificate();\r\n\r\n        emit CertificationDeleted(_CertID, CertificateAddresses[certKey].Address);\r\n        delete CertificateAddresses[certKey];\r\n    }\r\n    /**\r\n      * Delete an exisiting certificate.\r\n      *\r\n      * This can be done by an certificate administrator only.\r\n      *\r\n      * @param _CertID Unique identifier of the certificate to delete.\r\n      */\r\n    function delIndividualCertificate(string _CertID) public onlyCertAdmin {\r\n        bytes32 certKey = getCertKey(_CertID);\r\n\r\n        IndividualCertification(CertificateAddresses[certKey].Address).deleteCertificate();\r\n\r\n        emit CertificationDeleted(_CertID, CertificateAddresses[certKey].Address);\r\n        delete CertificateAddresses[certKey];\r\n    }\r\n    /**\r\n      * Register a certificate administrator.\r\n      *\r\n      * This can be done by the global administrator only.\r\n      *\r\n      * @param _CertAdmin Address of certificate administrator to be added.\r\n      */\r\n    function addCertAdmin(address _CertAdmin) public onlyGlobalAdmin {\r\n        CertAdmins[_CertAdmin] = true;\r\n        emit CertAdminAdded(_CertAdmin);\r\n    }\r\n\r\n    /**\r\n      * Delete a certificate administrator.\r\n      *\r\n      * This can be done by the global administrator only.\r\n      *\r\n      * @param _CertAdmin Address of certificate administrator to be removed.\r\n      */\r\n    function delCertAdmin(address _CertAdmin) public onlyGlobalAdmin {\r\n        delete CertAdmins[_CertAdmin];\r\n        emit CertAdminDeleted(_CertAdmin);\r\n    }\r\n    /**\r\n      * Change the address of the global administrator.\r\n      *\r\n      * This can be done by the global administrator only.\r\n      *\r\n      * @param _GlobalAdmin Address of new global administrator to be set.\r\n      */\r\n    function changeGlobalAdmin(address _GlobalAdmin) public onlyGlobalAdmin {\r\n        GlobalAdmin=_GlobalAdmin;\r\n        emit GlobalAdminChanged(_GlobalAdmin);\r\n\r\n    }\r\n\r\n    // Constant Functions\r\n\r\n    /**\r\n      * Determines the address of a certificate contract.\r\n      *\r\n      * @param _CertID Unique certificate identifier.\r\n      * @return Address of certification contract.\r\n      */\r\n    function getCertAddressByID(string _CertID) public constant returns (address) {\r\n        return CertificateAddresses[getCertKey(_CertID)].Address;\r\n    }\r\n\r\n    /**\r\n      * Derives an unique key from a certificate identifier to be used in the\r\n      * global mapping CertificateAddresses.\r\n      *\r\n      * This is necessary due to certificate identifiers are of type string\r\n      * which cannot be used as dictionary keys.\r\n      *\r\n      * @param _CertID The unique certificate identifier.\r\n      * @return The key derived from certificate identifier.\r\n      */\r\n    function getCertKey(string _CertID) public pure returns (bytes32) {\r\n        return sha256(abi.encodePacked(_CertID));\r\n    }\r\n\r\n\r\n    // Modifiers\r\n\r\n    /**\r\n      * Ensure that only the global administrator is able to perform.\r\n      */\r\n    modifier onlyGlobalAdmin () {\r\n        require(msg.sender==GlobalAdmin);\r\n        _;\r\n    }\r\n\r\n    /**\r\n      * Ensure that only a certificate administrator is able to perform.\r\n      */\r\n    modifier onlyCertAdmin () {\r\n        require(CertAdmins[msg.sender]);\r\n        _;\r\n    }\r\n\r\n}\r\n",
  "sourcePath": "C:\\Users\\Henry\\ws\\BEC.SmartContract\\contracts\\CertificationRegistry.sol",
  "compiler": {
    "name": "solc",
    "version": "0.4.24+commit.e67f0147.Emscripten.clang"
  },
  "schemaVersion": "2.0.1",
  "updatedAt": "2018-09-05T02:21:13.555Z"
}