{
  "contractName": "IndividualCertificationBinary",
  "abi": [
    {
      "constant": true,
      "inputs": [],
      "name": "certifierAddress",
      "outputs": [
        {
          "name": "",
          "type": "address"
        }
      ],
      "payable": false,
      "stateMutability": "view",
      "type": "function"
    },
    {
      "constant": true,
      "inputs": [],
      "name": "first32bytesOfHashValue",
      "outputs": [
        {
          "name": "",
          "type": "bytes32"
        }
      ],
      "payable": false,
      "stateMutability": "view",
      "type": "function"
    },
    {
      "constant": true,
      "inputs": [],
      "name": "last32bytesOfHashValue",
      "outputs": [
        {
          "name": "",
          "type": "bytes32"
        }
      ],
      "payable": false,
      "stateMutability": "view",
      "type": "function"
    },
    {
      "inputs": [
        {
          "name": "b0",
          "type": "bytes32"
        },
        {
          "name": "b1",
          "type": "bytes32"
        }
      ],
      "payable": false,
      "stateMutability": "nonpayable",
      "type": "constructor"
    },
    {
      "constant": false,
      "inputs": [
        {
          "name": "b0",
          "type": "bytes32"
        },
        {
          "name": "b1",
          "type": "bytes32"
        }
      ],
      "name": "setHashValue",
      "outputs": [],
      "payable": false,
      "stateMutability": "nonpayable",
      "type": "function"
    }
  ],
  "bytecode": "0x608060405234801561001057600080fd5b506040516040806102d98339810180604052810190808051906020019092919080519060200190929190505050336000806101000a81548173ffffffffffffffffffffffffffffffffffffffff021916908373ffffffffffffffffffffffffffffffffffffffff160217905550816001816000191690555080600281600019169055505050610235806100a46000396000f300608060405260043610610062576000357c0100000000000000000000000000000000000000000000000000000000900463ffffffff16806349cf2eae1461006757806355518041146100be57806363a73280146100f1578063de04891414610130575b600080fd5b34801561007357600080fd5b5061007c610163565b604051808273ffffffffffffffffffffffffffffffffffffffff1673ffffffffffffffffffffffffffffffffffffffff16815260200191505060405180910390f35b3480156100ca57600080fd5b506100d3610188565b60405180826000191660001916815260200191505060405180910390f35b3480156100fd57600080fd5b5061012e6004803603810190808035600019169060200190929190803560001916906020019092919050505061018e565b005b34801561013c57600080fd5b50610145610203565b60405180826000191660001916815260200191505060405180910390f35b6000809054906101000a900473ffffffffffffffffffffffffffffffffffffffff1681565b60015481565b6000809054906101000a900473ffffffffffffffffffffffffffffffffffffffff1673ffffffffffffffffffffffffffffffffffffffff163373ffffffffffffffffffffffffffffffffffffffff161415156101e957600080fd5b816001816000191690555080600281600019169055505050565b600254815600a165627a7a72305820d5367bd3dda8c4f5e9d752e155a074640eca373e8399e07c456a286f27c754fd0029",
  "source": "pragma solidity ^0.4.24;\r\n/**\r\n  * @title   Individual Certification Contract\r\n  * @author  Rosen GmbH\r\n  *\r\n  * This contract represents the individual certificate.\r\n  */\r\ncontract IndividualCertificationBinary {\r\n  address public certifierAddress;\r\n  bytes32 public first32bytesOfHashValue;\r\n  bytes32 public last32bytesOfHashValue;\r\n\r\n  constructor(bytes32 b0, bytes32 b1)\r\n    public\r\n  {\r\n    certifierAddress = msg.sender;\r\n    first32bytesOfHashValue = b0;\r\n    last32bytesOfHashValue = b1;\r\n  }\r\n\r\n  function setHashValue(bytes32 b0, bytes32 b1)\r\n    public\r\n  {\r\n    require(msg.sender == certifierAddress);\r\n    first32bytesOfHashValue = b0;\r\n    last32bytesOfHashValue = b1;\r\n  }\r\n}\r\n",
  "sourcePath": "C:\\Users\\Henry\\ws\\BEC.SmartContract\\contracts\\IndividualCertificationBinary.sol",
  "compiler": {
    "name": "solc",
    "version": "0.4.24+commit.e67f0147.Emscripten.clang"
  },
  "schemaVersion": "2.0.1",
  "updatedAt": "2018-09-05T02:21:13.559Z"
}