{
  "contractName": "IndividualCertification",
  "abi": [
    {
      "constant": true,
      "inputs": [],
      "name": "hashValue",
      "outputs": [
        {
          "name": "",
          "type": "string"
        }
      ],
      "payable": false,
      "stateMutability": "view",
      "type": "function"
    },
    {
      "constant": true,
      "inputs": [],
      "name": "certifierAddress",
      "outputs": [
        {
          "name": "",
          "type": "address"
        }
      ],
      "payable": false,
      "stateMutability": "view",
      "type": "function"
    },
    {
      "inputs": [
        {
          "name": "_hashValue",
          "type": "string"
        }
      ],
      "payable": false,
      "stateMutability": "nonpayable",
      "type": "constructor"
    },
    {
      "anonymous": false,
      "inputs": [
        {
          "indexed": false,
          "name": "oldHashValue",
          "type": "string"
        }
      ],
      "name": "HashValueChanged",
      "type": "event"
    },
    {
      "constant": false,
      "inputs": [
        {
          "name": "_hashValue",
          "type": "string"
        }
      ],
      "name": "setHashValue",
      "outputs": [],
      "payable": false,
      "stateMutability": "nonpayable",
      "type": "function"
    },
    {
      "constant": false,
      "inputs": [],
      "name": "deleteCertificate",
      "outputs": [],
      "payable": false,
      "stateMutability": "nonpayable",
      "type": "function"
    }
  ],
  "bytecode": "0x608060405234801561001057600080fd5b50604051610679380380610679833981018060405281019080805182019291905050508060608190506080815114151561004957600080fd5b336000806101000a81548173ffffffffffffffffffffffffffffffffffffffff021916908373ffffffffffffffffffffffffffffffffffffffff160217905550826001908051906020019061009f9291906100a8565b5050505061014d565b828054600181600116156101000203166002900490600052602060002090601f016020900481019282601f106100e957805160ff1916838001178555610117565b82800160010185558215610117579182015b828111156101165782518255916020019190600101906100fb565b5b5090506101249190610128565b5090565b61014a91905b8082111561014657600081600090555060010161012e565b5090565b90565b61051d8061015c6000396000f300608060405260043610610062576000357c0100000000000000000000000000000000000000000000000000000000900463ffffffff1680632b92b8e51461006757806349cf2eae146100f757806361cbe2151461014e578063afa936b8146101b7575b600080fd5b34801561007357600080fd5b5061007c6101ce565b6040518080602001828103825283818151815260200191508051906020019080838360005b838110156100bc5780820151818401526020810190506100a1565b50505050905090810190601f1680156100e95780820380516001836020036101000a031916815260200191505b509250505060405180910390f35b34801561010357600080fd5b5061010c61026c565b604051808273ffffffffffffffffffffffffffffffffffffffff1673ffffffffffffffffffffffffffffffffffffffff16815260200191505060405180910390f35b34801561015a57600080fd5b506101b5600480360381019080803590602001908201803590602001908080601f0160208091040260200160405190810160405280939291908181526020018383808284378201915050505050509192919290505050610291565b005b3480156101c357600080fd5b506101cc6103d8565b005b60018054600181600116156101000203166002900480601f0160208091040260200160405190810160405280929190818152602001828054600181600116156101000203166002900480156102645780601f1061023957610100808354040283529160200191610264565b820191906000526020600020905b81548152906001019060200180831161024757829003601f168201915b505050505081565b6000809054906101000a900473ffffffffffffffffffffffffffffffffffffffff1681565b806060819050608081511415156102a757600080fd5b6000809054906101000a900473ffffffffffffffffffffffffffffffffffffffff1673ffffffffffffffffffffffffffffffffffffffff163373ffffffffffffffffffffffffffffffffffffffff1614151561030257600080fd5b7f767a54fbccad24d3e60df26c9381cb44ebf6b2c9bc061a18b5ddfccafcd961a9600160405180806020018281038252838181546001816001161561010002031660029004815260200191508054600181600116156101000203166002900480156103ae5780601f10610383576101008083540402835291602001916103ae565b820191906000526020600020905b81548152906001019060200180831161039157829003601f168201915b50509250505060405180910390a182600190805190602001906103d292919061044c565b50505050565b6000809054906101000a900473ffffffffffffffffffffffffffffffffffffffff1673ffffffffffffffffffffffffffffffffffffffff163373ffffffffffffffffffffffffffffffffffffffff1614151561043357600080fd5b3273ffffffffffffffffffffffffffffffffffffffff16ff5b828054600181600116156101000203166002900490600052602060002090601f016020900481019282601f1061048d57805160ff19168380011785556104bb565b828001600101855582156104bb579182015b828111156104ba57825182559160200191906001019061049f565b5b5090506104c891906104cc565b5090565b6104ee91905b808211156104ea5760008160009055506001016104d2565b5090565b905600a165627a7a723058204d8aef7d242a58b8ec5642466ce9b1a28e4217203865a5893187905159336acc0029",
  "source": "pragma solidity ^0.4.24;\r\n/**\r\n  * @title   Individual Certification Contract\r\n  * @author  Rosen GmbH\r\n  *\r\n  * This contract represents the individual certificate.\r\n  */\r\ncontract IndividualCertification {\r\n  event HashValueChanged(string oldHashValue);\r\n  address public certifierAddress;\r\n  string public hashValue;\r\n\r\n  modifier isSha512Hash(string memory _hashValue) {\r\n    bytes memory stringTest = bytes(_hashValue);\r\n    require(stringTest.length == 128);\r\n    _;\r\n  }\r\n\r\n  constructor(string memory _hashValue)\r\n    public\r\n    isSha512Hash(_hashValue)\r\n  {\r\n    certifierAddress = msg.sender;\r\n    hashValue = _hashValue;\r\n  }\r\n\r\n  function setHashValue(string memory _hashValue)\r\n    public\r\n    isSha512Hash(_hashValue)\r\n  {\r\n    require(msg.sender == certifierAddress);\r\n    emit HashValueChanged(hashValue);\r\n    hashValue = _hashValue;\r\n  }\r\n  /**\r\n    * Extinguish this certificate.\r\n    *\r\n    * This can be done the same certifier contract which has created\r\n    * the certificate in the first place only.\r\n    */\r\n  function deleteCertificate() public {\r\n      require(msg.sender == certifierAddress);\r\n      selfdestruct(tx.origin);\r\n  }\r\n\r\n}\r\n",
  "sourcePath": "C:\\Users\\Henry\\ws\\BEC.SmartContract\\contracts\\IndividualCertification.sol",
  "compiler": {
    "name": "solc",
    "version": "0.4.24+commit.e67f0147.Emscripten.clang"
  },
  "schemaVersion": "2.0.1",
  "updatedAt": "2018-09-05T02:21:13.558Z"
}