{
  "contractName": "OrganizationalCertification",
  "abi": [
    {
      "constant": true,
      "inputs": [],
      "name": "CompanyName",
      "outputs": [
        {
          "name": "",
          "type": "string"
        }
      ],
      "payable": false,
      "stateMutability": "view",
      "type": "function"
    },
    {
      "constant": true,
      "inputs": [],
      "name": "CertID",
      "outputs": [
        {
          "name": "",
          "type": "string"
        }
      ],
      "payable": false,
      "stateMutability": "view",
      "type": "function"
    },
    {
      "constant": true,
      "inputs": [],
      "name": "issuingBody",
      "outputs": [
        {
          "name": "",
          "type": "string"
        }
      ],
      "payable": false,
      "stateMutability": "view",
      "type": "function"
    },
    {
      "constant": true,
      "inputs": [],
      "name": "certifierAddress",
      "outputs": [
        {
          "name": "",
          "type": "address"
        }
      ],
      "payable": false,
      "stateMutability": "view",
      "type": "function"
    },
    {
      "constant": true,
      "inputs": [],
      "name": "issued",
      "outputs": [
        {
          "name": "",
          "type": "uint256"
        }
      ],
      "payable": false,
      "stateMutability": "view",
      "type": "function"
    },
    {
      "constant": true,
      "inputs": [],
      "name": "Scope",
      "outputs": [
        {
          "name": "",
          "type": "string"
        }
      ],
      "payable": false,
      "stateMutability": "view",
      "type": "function"
    },
    {
      "constant": true,
      "inputs": [],
      "name": "expires",
      "outputs": [
        {
          "name": "",
          "type": "uint256"
        }
      ],
      "payable": false,
      "stateMutability": "view",
      "type": "function"
    },
    {
      "constant": true,
      "inputs": [],
      "name": "Norm",
      "outputs": [
        {
          "name": "",
          "type": "string"
        }
      ],
      "payable": false,
      "stateMutability": "view",
      "type": "function"
    },
    {
      "inputs": [
        {
          "name": "_CompanyName",
          "type": "string"
        },
        {
          "name": "_Norm",
          "type": "string"
        },
        {
          "name": "_CertID",
          "type": "string"
        },
        {
          "name": "_issued",
          "type": "uint256"
        },
        {
          "name": "_expires",
          "type": "uint256"
        },
        {
          "name": "_Scope",
          "type": "string"
        },
        {
          "name": "_issuingBody",
          "type": "string"
        }
      ],
      "payable": false,
      "stateMutability": "nonpayable",
      "type": "constructor"
    },
    {
      "constant": false,
      "inputs": [],
      "name": "deleteCertificate",
      "outputs": [],
      "payable": false,
      "stateMutability": "nonpayable",
      "type": "function"
    }
  ],
  "bytecode": "0x608060405234801561001057600080fd5b50604051610a17380380610a1783398101806040528101908080518201929190602001805182019291906020018051820192919060200180519060200190929190805190602001909291908051820192919060200180518201929190505050828410151561007d57600080fd5b336000806101000a81548173ffffffffffffffffffffffffffffffffffffffff021916908373ffffffffffffffffffffffffffffffffffffffff16021790555086600190805190602001906100d392919061014a565b5085600290805190602001906100ea92919061014a565b50846003908051906020019061010192919061014a565b508360048190555082600581905550816006908051906020019061012692919061014a565b50806007908051906020019061013d92919061014a565b50505050505050506101ef565b828054600181600116156101000203166002900490600052602060002090601f016020900481019282601f1061018b57805160ff19168380011785556101b9565b828001600101855582156101b9579182015b828111156101b857825182559160200191906001019061019d565b5b5090506101c691906101ca565b5090565b6101ec91905b808211156101e85760008160009055506001016101d0565b5090565b90565b610819806101fe6000396000f300608060405260043610610099576000357c0100000000000000000000000000000000000000000000000000000000900463ffffffff168063218fd1c41461009e57806331e8c7ba1461012e5780633eb1eb1a146101be57806349cf2eae1461024e5780635f1ff549146102a5578063a2240eb0146102d0578063afa936b814610360578063b1cb0db314610377578063f82ec3e6146103a2575b600080fd5b3480156100aa57600080fd5b506100b3610432565b6040518080602001828103825283818151815260200191508051906020019080838360005b838110156100f35780820151818401526020810190506100d8565b50505050905090810190601f1680156101205780820380516001836020036101000a031916815260200191505b509250505060405180910390f35b34801561013a57600080fd5b506101436104d0565b6040518080602001828103825283818151815260200191508051906020019080838360005b83811015610183578082015181840152602081019050610168565b50505050905090810190601f1680156101b05780820380516001836020036101000a031916815260200191505b509250505060405180910390f35b3480156101ca57600080fd5b506101d361056e565b6040518080602001828103825283818151815260200191508051906020019080838360005b838110156102135780820151818401526020810190506101f8565b50505050905090810190601f1680156102405780820380516001836020036101000a031916815260200191505b509250505060405180910390f35b34801561025a57600080fd5b5061026361060c565b604051808273ffffffffffffffffffffffffffffffffffffffff1673ffffffffffffffffffffffffffffffffffffffff16815260200191505060405180910390f35b3480156102b157600080fd5b506102ba610631565b6040518082815260200191505060405180910390f35b3480156102dc57600080fd5b506102e5610637565b6040518080602001828103825283818151815260200191508051906020019080838360005b8381101561032557808201518184015260208101905061030a565b50505050905090810190601f1680156103525780820380516001836020036101000a031916815260200191505b509250505060405180910390f35b34801561036c57600080fd5b506103756106d5565b005b34801561038357600080fd5b5061038c610749565b6040518082815260200191505060405180910390f35b3480156103ae57600080fd5b506103b761074f565b6040518080602001828103825283818151815260200191508051906020019080838360005b838110156103f75780820151818401526020810190506103dc565b50505050905090810190601f1680156104245780820380516001836020036101000a031916815260200191505b509250505060405180910390f35b60018054600181600116156101000203166002900480601f0160208091040260200160405190810160405280929190818152602001828054600181600116156101000203166002900480156104c85780601f1061049d576101008083540402835291602001916104c8565b820191906000526020600020905b8154815290600101906020018083116104ab57829003601f168201915b505050505081565b60038054600181600116156101000203166002900480601f0160208091040260200160405190810160405280929190818152602001828054600181600116156101000203166002900480156105665780601f1061053b57610100808354040283529160200191610566565b820191906000526020600020905b81548152906001019060200180831161054957829003601f168201915b505050505081565b60078054600181600116156101000203166002900480601f0160208091040260200160405190810160405280929190818152602001828054600181600116156101000203166002900480156106045780601f106105d957610100808354040283529160200191610604565b820191906000526020600020905b8154815290600101906020018083116105e757829003601f168201915b505050505081565b6000809054906101000a900473ffffffffffffffffffffffffffffffffffffffff1681565b60045481565b60068054600181600116156101000203166002900480601f0160208091040260200160405190810160405280929190818152602001828054600181600116156101000203166002900480156106cd5780601f106106a2576101008083540402835291602001916106cd565b820191906000526020600020905b8154815290600101906020018083116106b057829003601f168201915b505050505081565b6000809054906101000a900473ffffffffffffffffffffffffffffffffffffffff1673ffffffffffffffffffffffffffffffffffffffff163373ffffffffffffffffffffffffffffffffffffffff1614151561073057600080fd5b3273ffffffffffffffffffffffffffffffffffffffff16ff5b60055481565b60028054600181600116156101000203166002900480601f0160208091040260200160405190810160405280929190818152602001828054600181600116156101000203166002900480156107e55780601f106107ba576101008083540402835291602001916107e5565b820191906000526020600020905b8154815290600101906020018083116107c857829003601f168201915b5050505050815600a165627a7a72305820117ecb030ae94b95966e4a608eefb13e777458796cd1705c84c151e5a0b5ec430029",
  "source": "pragma solidity ^0.4.18;\r\n\r\n/**\r\n  * @title   Certificate Contract\r\n  * @author  Chainstep GmbH\r\n  *\r\n  * Each instance of this contract represents a single certificate.\r\n  */\r\ncontract OrganizationalCertification  {\r\n\r\n    /**\r\n      * Address of certifier contract this certificate belongs to.\r\n      */\r\n    address public certifierAddress;\r\n\r\n    string public CompanyName;\r\n    string public Norm;\r\n    string public CertID;\r\n    uint public issued;\r\n    uint public expires;\r\n    string public Scope;\r\n    string public issuingBody;\r\n\r\n    /**\r\n      * Constructor.\r\n      *\r\n      * @param _CompanyName Name of company name the certificate is issued to.\r\n      * @param _Norm The norm.\r\n      * @param _CertID Unique identifier of the certificate.\r\n      * @param _issued Timestamp (Unix epoch) when the certificate was issued.\r\n      * @param _expires Timestamp (Unix epoch) when the certificate will expire.\r\n      * @param _Scope The scope of the certificate.\r\n      * @param _issuingBody The issuer of the certificate.\r\n      */\r\n    constructor(\r\n        string _CompanyName,\r\n        string _Norm,\r\n        string _CertID,\r\n        uint _issued,\r\n        uint _expires,\r\n        string _Scope,\r\n        string _issuingBody)\r\n        public\r\n    {\r\n        require(_issued < _expires);\r\n\r\n        certifierAddress = msg.sender;\r\n\r\n        CompanyName = _CompanyName;\r\n        Norm =_Norm;\r\n        CertID = _CertID;\r\n        issued = _issued;\r\n        expires = _expires;\r\n        Scope = _Scope;\r\n        issuingBody = _issuingBody;\r\n    }\r\n\r\n    /**\r\n      * Extinguish this certificate.\r\n      *\r\n      * This can be done the same certifier contract which has created\r\n      * the certificate in the first place only.\r\n      */\r\n    function deleteCertificate() public {\r\n        require(msg.sender == certifierAddress);\r\n        selfdestruct(tx.origin);\r\n    }\r\n\r\n}\r\n",
  "sourcePath": "C:\\Users\\Henry\\ws\\BEC.SmartContract\\contracts\\OrganizationalCertification.sol",
  "compiler": {
    "name": "solc",
    "version": "0.4.24+commit.e67f0147.Emscripten.clang"
  },
  "schemaVersion": "2.0.1",
  "updatedAt": "2018-09-05T02:21:13.559Z"
}